{
  "fileName": "Deployer.sol",
  "contractName": "Deployer",
  "source": "pragma solidity ^0.6.0;\nimport \"@openzeppelin/upgrades/contracts/Initializable.sol\";\nimport './Deployed.sol';\ncontract Deployer is Initializable{\n    Deployed public _deployed;\n    string public _name;\n    function initialize () public initializer{\n        _name=\"I am A deployer..\";\n        _deployed=new Deployed();\n    }\n    function getName() public view returns(string memory){\n        return _name;\n    }\n}",
  "sourcePath": "contracts/Deployer.sol",
  "abi": [
    {
      "inputs": [],
      "name": "_deployed",
      "outputs": [
        {
          "internalType": "contract Deployed",
          "name": "",
          "type": "address"
        }
      ],
      "stateMutability": "view",
      "type": "function"
    },
    {
      "inputs": [],
      "name": "_name",
      "outputs": [
        {
          "internalType": "string",
          "name": "",
          "type": "string"
        }
      ],
      "stateMutability": "view",
      "type": "function"
    },
    {
      "inputs": [],
      "name": "getName",
      "outputs": [
        {
          "internalType": "string",
          "name": "",
          "type": "string"
        }
      ],
      "stateMutability": "view",
      "type": "function"
    },
    {
      "inputs": [],
      "name": "initialize",
      "outputs": [],
      "stateMutability": "nonpayable",
      "type": "function"
    }
  ],
  "bytecode": "0x608060405234801561001057600080fd5b50610aeb806100206000396000f3fe608060405234801561001057600080fd5b506004361061004c5760003560e01c806317d7de7c146100515780636bdedcdc146100d45780638129fc1c14610108578063d28d885214610112575b600080fd5b610059610195565b6040518080602001828103825283818151815260200191508051906020019080838360005b8381101561009957808201518184015260208101905061007e565b50505050905090810190601f1680156100c65780820380516001836020036101000a031916815260200191505b509250505060405180910390f35b6100dc610237565b604051808273ffffffffffffffffffffffffffffffffffffffff16815260200191505060405180910390f35b61011061025d565b005b61011a610410565b6040518080602001828103825283818151815260200191508051906020019080838360005b8381101561015a57808201518184015260208101905061013f565b50505050905090810190601f1680156101875780820380516001836020036101000a031916815260200191505b509250505060405180910390f35b606060348054600181600116156101000203166002900480601f01602080910402602001604051908101604052809291908181526020018280546001816001161561010002031660029004801561022d5780601f106102025761010080835404028352916020019161022d565b820191906000526020600020905b81548152906001019060200180831161021057829003601f168201915b5050505050905090565b603360009054906101000a900473ffffffffffffffffffffffffffffffffffffffff1681565b600060019054906101000a900460ff168061027c575061027b6104ae565b5b80610292575060008054906101000a900460ff16155b6102e7576040517f08c379a000000000000000000000000000000000000000000000000000000000815260040180806020018281038252602e815260200180610a88602e913960400191505060405180910390fd5b60008060019054906101000a900460ff161590508015610337576001600060016101000a81548160ff02191690831515021790555060016000806101000a81548160ff0219169083151502179055505b6040518060400160405280601181526020017f4920616d2041206465706c6f7965722e2e000000000000000000000000000000815250603490805190602001906103829291906104c5565b5060405161038f90610545565b604051809103906000f0801580156103ab573d6000803e3d6000fd5b50603360006101000a81548173ffffffffffffffffffffffffffffffffffffffff021916908373ffffffffffffffffffffffffffffffffffffffff160217905550801561040d5760008060016101000a81548160ff0219169083151502179055505b50565b60348054600181600116156101000203166002900480601f0160208091040260200160405190810160405280929190818152602001828054600181600116156101000203166002900480156104a65780601f1061047b576101008083540402835291602001916104a6565b820191906000526020600020905b81548152906001019060200180831161048957829003601f168201915b505050505081565b6000803090506000813b9050600081149250505090565b828054600181600116156101000203166002900490600052602060002090601f016020900481019282601f1061050657805160ff1916838001178555610534565b82800160010185558215610534579182015b82811115610533578251825591602001919060010190610518565b5b5090506105419190610552565b5090565b6105188061057083390190565b5b8082111561056b576000816000905550600101610553565b509056fe608060405234801561001057600080fd5b506104f8806100206000396000f3fe608060405234801561001057600080fd5b50600436106100415760003560e01c806317d7de7c146100465780638129fc1c146100c9578063d28d8852146100d3575b600080fd5b61004e610156565b6040518080602001828103825283818151815260200191508051906020019080838360005b8381101561008e578082015181840152602081019050610073565b50505050905090810190601f1680156100bb5780820380516001836020036101000a031916815260200191505b509250505060405180910390f35b6100d16101f8565b005b6100db610342565b6040518080602001828103825283818151815260200191508051906020019080838360005b8381101561011b578082015181840152602081019050610100565b50505050905090810190601f1680156101485780820380516001836020036101000a031916815260200191505b509250505060405180910390f35b606060338054600181600116156101000203166002900480601f0160208091040260200160405190810160405280929190818152602001828054600181600116156101000203166002900480156101ee5780601f106101c3576101008083540402835291602001916101ee565b820191906000526020600020905b8154815290600101906020018083116101d157829003601f168201915b5050505050905090565b600060019054906101000a900460ff168061021757506102166103e0565b5b8061022d575060008054906101000a900460ff16155b610282576040517f08c379a000000000000000000000000000000000000000000000000000000000815260040180806020018281038252602e815260200180610495602e913960400191505060405180910390fd5b60008060019054906101000a900460ff1615905080156102d2576001600060016101000a81548160ff02191690831515021790555060016000806101000a81548160ff0219169083151502179055505b6040518060400160405280600f81526020017f4920616d206465706c6f7965642e2e00000000000000000000000000000000008152506033908051906020019061031d9291906103f7565b50801561033f5760008060016101000a81548160ff0219169083151502179055505b50565b60338054600181600116156101000203166002900480601f0160208091040260200160405190810160405280929190818152602001828054600181600116156101000203166002900480156103d85780601f106103ad576101008083540402835291602001916103d8565b820191906000526020600020905b8154815290600101906020018083116103bb57829003601f168201915b505050505081565b6000803090506000813b9050600081149250505090565b828054600181600116156101000203166002900490600052602060002090601f016020900481019282601f1061043857805160ff1916838001178555610466565b82800160010185558215610466579182015b8281111561046557825182559160200191906001019061044a565b5b5090506104739190610477565b5090565b5b80821115610490576000816000905550600101610478565b509056fe436f6e747261637420696e7374616e63652068617320616c7265616479206265656e20696e697469616c697a6564a264697066735822122064cbe15f24c9b80a051cdb2acc37b37e90454379e558427203d3d625d8e7944364736f6c634300060c0033436f6e747261637420696e7374616e63652068617320616c7265616479206265656e20696e697469616c697a6564a26469706673582212206c1b7dc209d29ea486ee6b4bf6989f35092a0afec45853228e21dd34bffc711164736f6c634300060c0033",
  "compiler": {
    "name": "solc",
    "version": "0.6.12+commit.27d51765.Emscripten.clang",
    "optimizer": {
      "enabled": false,
      "runs": 200
    },
    "evmVersion": "petersburg"
  }
}